10001FLORENCIA      BLANCO         220004400000
10002WALTER         CARSON         150003000000
10045AMPARO         ANCHORENA      300006000000
10050EMILIO         EIFFEL         180003600000
10100BRENDA         MCCARTNEY      280005600000
